:100000000C942A000C94F10A0C94240B0C94570BBA
:100010000C9447000C9447000C9447000C94470044
:100020000C9447000C9447000C9447000C94470034
:100030000C9447000C9447000C9447000C94470024
:100040000C9429110C9447000C9447000C94470021
:100050000C94470011241FBECFE5D8E0DEBFCDBF12
:1000600012E0A0E6B0E0ECEEF5E402C005900D92DF
:10007000A236B107D9F712E0A2E6B2E001C01D92A4
:10008000A237B107E1F70E94AD1E0C94F4220C9444
:100090000000EF92FF920F93DF93CF93CDB7DEB7BF
:1000A00060970FB6F894DEBF0FBECDBFA82F002318
:1000B00009F461C07E010894E11CF11C88E0F7019D
:1000C00011928A95E9F729833A834B835C836D8388
:1000D0007E83AF83988780E2801BE82FFF27E7FDB0
:1000E000F0954D815E816F817885181684F01D86AC
:1000F0001E861F86188A882799278E1B9F0B04C08F
:1001000076956795579547958A95D2F728C0202F01
:10011000332727FD3095DB01CA01022E04C0B695B6
:10012000A795979587950A94D2F78D879E87AF8775
:10013000B88B04C0440F551F661F771FEA95D2F78E
:1001400089819A81AB81BC8104C0B695A7959795AA
:1001500087952A95D2F7482B592B6A2B7B2B4987F9
:100160005A876B877C8729853A854B855C856D85A9
:100170007E85AF8598898A2F60960FB6F894DEBF8A
:100180000FBECDBFCF91DF910F91FF90EF900895FB
:10019000EF92FF920F93DF93CF93CDB7DEB76097C7
:1001A0000FB6F894DEBF0FBECDBFA82F002309F411
:1001B00061C07E010894E11CF11C88E0F7011192F6
:1001C0008A95E9F729833A834B835C836D837E8329
:1001D000AF83988780E2801BE82FFF27E7FDF0952B
:1001E00049815A816B817C81181684F019861A86A0
:1001F0001B861C86882799278E1B9F0B04C0440FE3
:10020000551F661F771F8A95D2F728C0202F3327E6
:1002100027FD3095DB01CA01022E04C0880F991F0B
:10022000AA1FBB1F0A94D2F789879A87AB87BC871E
:1002300004C07695679557954795EA95D2F78D81D5
:100240009E81AF81B88504C0880F991FAA1FBB1F6C
:100250002A95D2F7482B592B6A2B7B2B4D875E872B
:100260006F87788B29853A854B855C856D857E8582
:10027000AF8598898A2F60960FB6F894DEBF0FBEBF
:10028000CDBFCF91DF910F91FF90EF900895EF9246
:10029000FF920F931F937B018C0120E030E040E040
:1002A0005FE40E94A70488238CF0C801B70120E016
:1002B00030E040E05FE40E94BF020E9465059B01C0
:1002C000AC01205030404040504806C0C801B70142
:1002D0000E9465059B01AC01B901CA011F910F91F4
:1002E000FF90EF900895A0E0B0E0E9E7F1E00C9412
:1002F000BD22DC012B01FA019C91923008F439C136
:10030000EB018881823008F433C1943069F4843081
:1003100009F02FC111969C9111978981981709F4C2
:1003200028C1A2EFB0E025C1843009F421C1823098
:10033000A9F4923009F01DC19A01AD0188E0EA01EB
:100340000990AE01E90109929E018150C1F7E201D5
:10035000898111969C918923818308C1923009F487
:1003600007C112962D903C901397EB018A819B81D7
:100370001496AD90BD90CD90DC901797EC80FD80E9
:100380000E811F819101281B390BB90137FF04C071
:1003900066277727621B730B603271050CF061C012
:1003A000121613066CF537014801062E04C0969408
:1003B0008794779467940A94D2F721E030E040E084
:1003C00050E004C0220F331F441F551F6A95D2F717
:1003D00021503040404050402E213F2140235123A6
:1003E000211531054105510521F021E030E040E0C3
:1003F00050E079018A01E628F728082919293CC02C
:10040000232BD1F1260E371E35014601062E04C0DE
:1004100096948794779467940A94D2F721E030E019
:1004200040E050E004C0220F331F441F551F6A955F
:10043000D2F721503040404050402A213B214C21EE
:100440005D21211531054105510521F021E030E004
:1004500040E050E059016A01A628B728C828D928E9
:100460000BC0821593052CF01C01AA24BB24650146
:1004700003C0EE24FF24870111969C91D2011196AE
:100480008C91981709F445C0992339F0A801970178
:100490002A193B094C095D0906C0A60195012E19D0
:1004A0003F09400B510B57FD08C011823382228255
:1004B00024833583468357831DC081E08183338243
:1004C000228288279927DC01821B930BA40BB50B92
:1004D00084839583A683B7830DC0220F331F441FE7
:1004E000551F2483358346835783828193810197E7
:1004F000938382832481358146815781DA01C90142
:100500000197A109B1098F5F9F4FAF4FBF4328F3F8
:100510000BC0918333822282EA0CFB1C0C1D1D1D33
:10052000E482F5820683178383E08083248135810A
:100530004681578157FF1AC0C901AA2797FDA09588
:10054000BA2F81709070A070B0705695479537950E
:100550002795822B932BA42BB52B84839583A6837D
:10056000B78382819381019693838283DF0101C0E7
:10057000D201CD01CDB7DEB7E2E10C94D922A0E2E1
:10058000B0E0E5ECF2E00C94C92269837A838B83B6
:100590009C832D833E834F835887E9E0EE2EF12C18
:1005A000EC0EFD1ECE010196B7010E94DD068E0104
:1005B0000F5E1F4FCE010596B8010E94DD068A89A5
:1005C00091E089278A8BC701B801AE01475E5F4F72
:1005D0000E9473010E940806A096E6E00C94E522B2
:1005E000A0E2B0E0E6EFF2E00C94C92269837A83DE
:1005F0008B839C832D833E834F835887F9E0EF2EB6
:10060000F12CEC0EFD1ECE010196B7010E94DD0615
:100610008E010F5E1F4FCE010596B8010E94DD06C8
:10062000C701B801AE01475E5F4F0E9473010E948F
:100630000806A096E6E00C94E522A0E2B0E0E3E232
:10064000F3E00C94BD2269837A838B839C832D8392
:100650003E834F835887CE010196BE01675F7F4F6F
:100660000E94DD06CE010596BE016F5E7F4F0E949F
:10067000DD069985923088F089898230C8F09430FF
:1006800019F4823051F404C0843029F4923081F49A
:1006900082EF90E0C6C0923049F420E09A858A89C2
:1006A000981321E02A87CE010996BBC0823049F415
:1006B00020E09A858A89981321E02A8BCE01419601
:1006C000B0C02D843E844F8458886D887E888F8882
:1006D000988CEE24FF248701AA24BB24650140E006
:1006E00050E060E070E0E0E0F0E0C1018170907007
:1006F000892BE9F0E60CF71C081D191D9A01AB01C6
:100700002A0D3B1D4C1D5D1D80E090E0A0E0B0E097
:10071000E614F7040805190520F481E090E0A0E054
:10072000B0E0BA01A901480F591F6A1F7B1FAA0C2C
:10073000BB1CCC1CDD1C97FE08C081E090E0A0E053
:10074000B0E0A82AB92ACA2ADB2A3196E032F1059C
:1007500049F0660C771C881C991C56944794379472
:100760002794C3CFFA85EA892B893C898B859C85A0
:10077000280F391F2E5F3F4F17C0CA01817090703C
:10078000892B61F016950795F794E79480E090E047
:10079000A0E0B0E8E82AF92A0A2B1B2B769567958A
:1007A000579547952F5F3F4F77FDE7CF0CC0440F1C
:1007B000551F661F771F17FD4160EE0CFF1C001FC1
:1007C000111F21503040403090E0590790E06907F8
:1007D00090E4790760F32B8F3C8FDB01CA018F77A0
:1007E0009070A070B07080349105A105B10561F4DE
:1007F00047FD0AC0E114F1040105110529F0405C30
:100800005F4F6F4F7F4F40781A8EFE1711F081E0D7
:100810008A8F4D8F5E8F6F8F78A383E0898FCE0193
:1008200049960E940806A096E2E10C94D922A8E11C
:10083000B0E0EDE1F4E00C94C92269837A838B8304
:100840009C832D833E834F83588789E0E82EF12CCB
:10085000EC0EFD1ECE010196B7010E94DD068E0151
:100860000F5E1F4FCE010596B8010E94DD068985F7
:10087000823040F08989823028F0C701B8010E9497
:10088000550701C081E06896E6E00C94E522A8E1F6
:10089000B0E0EDE4F4E00C94C92269837A838B83A1
:1008A0009C832D833E834F83588789E0E82EF12C6B
:1008B000EC0EFD1ECE010196B7010E94DD068E01F1
:1008C0000F5E1F4FCE010596B8010E94DD06898597
:1008D000823040F08989823028F0C701B8010E9437
:1008E000550701C081E06896E6E00C94E522A8E196
:1008F000B0E0EDE7F4E00C94C92269837A838B833E
:100900009C832D833E834F83588789E0E82EF12C0A
:10091000EC0EFD1ECE010196B7010E94DD068E0190
:100920000F5E1F4FCE010596B8010E94DD06898536
:10093000823040F08989823028F0C701B8010E94D6
:10094000550701C08FEF6896E6E00C94E522A8E118
:10095000B0E0EDEAF4E00C94C92269837A838B83DA
:100960009C832D833E834F83588789E0E82EF12CAA
:10097000EC0EFD1ECE010196B7010E94DD068E0130
:100980000F5E1F4FCE010596B8010E94DD068985D6
:10099000823040F08989823028F0C701B8010E9476
:1009A000550701C08FEF6896E6E00C94E522A8E1B8
:1009B000B0E0EDEDF4E00C94C92269837A838B8377
:1009C0009C832D833E834F83588789E0E82EF12C4A
:1009D000EC0EFD1ECE010196B7010E94DD068E01D0
:1009E0000F5E1F4FCE010596B8010E94DD06898576
:1009F000823040F08989823028F0C701B8010E9416
:100A0000550701C081E06896E6E00C94E522A8E075
:100A1000B0E0EDE0F5E00C94C6229B01AC0183E070
:100A20008983DA01C9018827B7FD83959927AA2709
:100A3000BB27B82E211531054105510519F482E077
:100A400089833AC08823A9F0203080E0380780E00D
:100A5000480780E8580729F460E070E080E09FECE8
:100A600030C0EE24FF248701E21AF30A040B150BB1
:100A700002C079018A018EE1C82ED12CDC82CB82A2
:100A8000ED82FE820F831887C801B7010E94B90565
:100A900001971816190684F4082E04C0EE0CFF1CEA
:100AA000001F111F0A94D2F7ED82FE820F83188770
:100AB000C81AD90ADC82CB82BA82CE0101960E9482
:100AC00008062896E9E00C94E222ACE0B0E0EBE600
:100AD000F5E00C94CD2269837A838B839C83CE01CD
:100AE0000196BE016B5F7F4F0E94DD068D818230D3
:100AF00061F1823050F1843021F48E81882351F1EC
:100B00002EC02F81388537FD20C06E812F313105F1
:100B10001CF06623F9F023C08EE190E0821B930B5A
:100B200029853A854B855C8504C056954795379550
:100B300027958A95D2F76623B1F050954095309568
:100B400021953F4F4F4F5F4F0EC020E030E040E017
:100B500050E009C02FEF3FEF4FEF5FE704C020E008
:100B600030E040E050E8B901CA012C96E2E00C9474
:100B7000E922EF92FF920F931F937B018C0180E09B
:100B8000E81680E0F80681E0080780E0180788F49E
:100B90008FEFE816F1040105110531F028F088E027
:100BA00090E0A0E0B0E017C080E090E0A0E0B0E00E
:100BB00012C080E0E81680E0F80680E0080781E0D7
:100BC000180728F088E190E0A0E0B0E004C080E1E0
:100BD00090E0A0E0B0E020E230E040E050E0281BF0
:100BE000390B4A0B5B0B04C016950795F794E794F5
:100BF0008A95D2F7F701E650FF4F8081281B310913
:100C000041095109C9011F910F91FF90EF9008957B
:100C1000DF92EF92FF920F931F93FC01E480F58027
:100C200006811781D1808081823048F480E090E095
:100C3000A0E1B0E0E82AF92A0A2B1B2BA5C08430DA
:100C400009F49FC0823021F4EE24FF24870105C0FF
:100C5000E114F1040105110519F4E0E0F0E096C09B
:100C6000628173819FEF623879070CF05BC022E8E4
:100C70003FEF261B370B2A3131052CF020E030E006
:100C800040E050E02AC0B801A701022E04C07695CA
:100C90006795579547950A94D2F781E090E0A0E0D8
:100CA000B0E004C0880F991FAA1FBB1F2A95D2F776
:100CB0000197A109B1098E219F21A023B12300979B
:100CC000A105B10521F081E090E0A0E0B0E09A013B
:100CD000AB01282B392B4A2B5B2BDA01C9018F770B
:100CE0009070A070B07080349105A105B10539F401
:100CF00027FF09C0205C3F4F4F4F5F4F04C0215C6E
:100D00003F4F4F4F5F4FE0E0F0E02030A0E03A0768
:100D1000A0E04A07A0E45A0710F0E1E0F0E0790112
:100D20008A0127C06038710564F5FB01E158FF4F67
:100D3000D801C7018F779070A070B0708034910592
:100D4000A105B10539F4E7FE0DC080E490E0A0E014
:100D5000B0E004C08FE390E0A0E0B0E0E80EF91E40
:100D60000A1F1B1F17FF05C016950795F794E794F8
:100D7000319687E016950795F794E7948A95D1F711
:100D800005C0EE24FF248701EFEFF0E06E2F67959A
:100D900066276795902F9F77D794DD24D7948E2F61
:100DA0008695492F462B582F5D29B701CA011F91FF
:100DB0000F91FF90EF90DF900895FC01DB014081DF
:100DC00051812281622F6F7770E0221F2227221F1C
:100DD0009381892F880F822B282F30E0991F992724
:100DE000991F11969C93119721153105A9F541156D
:100DF00051056105710511F482E037C082E89FEF6B
:100E000013969C938E9312979A01AB0167E0220F81
:100E1000331F441F551F6A95D1F783E08C930DC093
:100E2000220F331F441F551F12968D919C911397CB
:100E3000019713969C938E931297203080E0380789
:100E400080E0480780E4580758F314962D933D93AB
:100E50004D935C93179708952F3F310579F4411511
:100E600051056105710519F484E08C93089564FFC0
:100E700003C081E08C9312C01C9210C02F573040E9
:100E800013963C932E93129783E08C9387E0440F44
:100E9000551F661F771F8A95D1F7706414964D937E
:100EA0005D936D937C93179708951F93DC01FB016D
:100EB0009C91923008F447C08081823008F443C08E
:100EC000943051F411961C91843099F58181682FEA
:100ED00070E0611B71093FC0843021F0923031F421
:100EE0008230B9F18181882389F12DC011961C913E
:100EF00011978230F1F081811817D9F412962D9153
:100F00003C911397828193818217930794F028175D
:100F10003907BCF014968D919D910D90BC91A02D38
:100F20002481358146815781281739074A075B0795
:100F300018F4112341F00AC082179307A407B507DC
:100F400040F4112319F061E070E005C06FEF7FEF0E
:100F500002C060E070E0CB011F910895DF93CF9352
:100F6000CDB7DEB7AFE5B0E0EFE5F0E080818068B7
:100F70008C93CF91DF910895DF93CF93CDB7DEB7F8
:100F8000AFE5B0E0EFE5F0E080818F778C93CF9113
:100F9000DF910895DF93CF93CDB7DEB72A970FB6D1
:100FA000F894DEBF0FBECDBF9B838A8381E0898327
:100FB0008A819B81009719F422E02A8713C1EA8174
:100FC000FB818081893009F067C0EA81FB818181E2
:100FD000282F30E0398728878885998582349105C4
:100FE000B1F028853985233431055CF488859985ED
:100FF00084329105D9F0288539852833310529F1C6
:1010000042C0888599858635910571F13CC0A5E57A
:10101000B0E0E5E5F0E0808182608C93A5E5B0E08A
:10102000E5E5F0E080818E7F8C932FC0A5E5B0E0F0
:10103000E5E5F0E0808182608C93A5E5B0E0E5E530
:10104000F0E0808181608C9320C0A5E5B0E0E5E50B
:10105000F0E080818D7F8C93A5E5B0E0E5E5F0E0E0
:10106000808181608C9311C0A5E5B0E0E5E5F0E0FA
:1010700080818D7F8C93A5E5B0E0E5E5F0E080818F
:101080008E7F8C9302C087E08983ABE5B0E0EBE50F
:10109000F0E0808180648C938A819B81FC01329690
:1010A0008081893009F069C08A819B81FC01329678
:1010B0008181282F30E03F832E838E819F8182346F
:1010C0009105B1F02E813F81233431055CF48E818E
:1010D0009F8184329105D9F02E813F8128333105DB
:1010E00029F142C08E819F818635910571F13CC006
:1010F000A5E5B0E0E5E5F0E0808188608C93A5E5AA
:10110000B0E0E5E5F0E080818B7F8C932FC0A5E512
:10111000B0E0E5E5F0E0808188608C93A5E5B0E083
:10112000E5E5F0E0808184608C9320C0A5E5B0E027
:10113000E5E5F0E08081877F8C93A5E5B0E0E5E50B
:10114000F0E0808184608C9311C0A5E5B0E0E5E516
:10115000F0E08081877F8C93A5E5B0E0E5E5F0E0E5
:1011600080818B7F8C9302C087E08983ABE5B0E000
:10117000EBE5F0E0808180688C938A819B81FC01A3
:1011800034968081893061F58A819B81FC01349697
:101190008181282F30E03D832C838C819D81843296
:1011A000910569F02C813D812234310581F4A4E55B
:1011B000B0E0E4E5F0E080818F7B8C930AC0A4E589
:1011C000B0E0E4E5F0E0808180648C9302C087E0C9
:1011D0008983ABE5B0E0EBE5F0E0808180628C9341
:1011E00039813A878A852A960FB6F894DEBF0FBEFA
:1011F000CDBFCF91DF910895DF93CF93CDB7DEB709
:101200002B970FB6F894DEBF0FBECDBF8A836B83DA
:1012100081E089838B818635C1F58A81282F30E072
:101220003B872A878A859B8582329105C9F02A856A
:101230003B852332310519F18A859B8581329105E1
:1012400009F5A5E5B0E0E5E5F0E080818E7F8C93BF
:10125000A5E5B0E0E5E5F0E080818D7F8C93D2C01C
:10126000A5E5B0E0E5E5F0E08081877F8C93A5E51A
:10127000B0E0E5E5F0E080818B7F8C93C3C087E030
:101280008983C0C086E08983BDC08B818432E9F543
:101290008A81282F30E0398728878885998582328E
:1012A0009105C9F0288539852332310519F18885E2
:1012B00099858132910531F5A5E5B0E0E5E5F0E0ED
:1012C000808182608C93A5E5B0E0E5E5F0E0808167
:1012D00081608C9397C0A5E5B0E0E5E5F0E0808102
:1012E00088608C93A5E5B0E0E5E5F0E0808184605E
:1012F0008C9388C0A4E5B0E0E4E5F0E080818064F0
:101300008C9380C086E089837DC08B818234E9F52F
:101310008A81282F30E03F832E838E819F81823205
:101320009105C9F02E813F812332310519F18E815B
:101330009F818132910531F5A5E5B0E0E5E5F0E06A
:10134000808182608C93A5E5B0E0E5E5F0E08081E6
:101350008E7F8C9357C0A5E5B0E0E5E5F0E0808195
:1013600088608C93A5E5B0E0E5E5F0E080818B7FB7
:101370008C9348C0A4E5B0E0E4E5F0E080818F7B89
:101380008C9340C086E089833DC08B818833C1F552
:101390008A81282F30E03D832C838C819D8182328D
:1013A0009105C9F02C813D812332310519F18C81E1
:1013B0009D818132910509F5A5E5B0E0E5E5F0E014
:1013C00080818D7F8C93A5E5B0E0E5E5F0E080813C
:1013D00081608C9317C0A5E5B0E0E5E5F0E0808181
:1013E000877F8C93A5E5B0E0E5E5F0E0808184603F
:1013F0008C9308C087E0898305C086E0898302C09A
:1014000084E0898389812B960FB6F894DEBF0FBEE6
:10141000CDBFCF91DF910895DF93CF9300D000D05F
:10142000CDB7DEB78A8319828A81282F30E03C83CA
:101430002B838B819C8182329105A1F02B813C8191
:1014400023323105C9F08B819C8181329105F1F401
:10145000ABE5B0E0EBE5F0E0808180648C9381E067
:10146000898316C0ABE5B0E0EBE5F0E080818068F1
:101470008C9381E089830CC0ABE5B0E0EBE5F0E054
:10148000808180628C9381E0898302C086E08983B9
:1014900089810F900F900F900F90CF91DF91089559
:1014A000DF93CF9300D000D0CDB7DEB78A83198207
:1014B0008A81282F30E03C832B838B819C81823270
:1014C0009105A1F02B813C8123323105C9F08B813C
:1014D0009C8181329105F1F4ABE5B0E0EBE5F0E001
:1014E00080818F7B8C9381E0898316C0ABE5B0E06F
:1014F000EBE5F0E080818F778C9381E089830CC0ED
:10150000ABE5B0E0EBE5F0E080818F7D8C9381E08E
:10151000898302C086E0898389810F900F900F90A4
:101520000F90CF91DF910895DF93CF9300D00F926A
:10153000CDB7DEB79B838A8319828A819B8100970E
:1015400049F08A819B81909363028093620281E0DB
:10155000898302C082E0898389810F900F900F9068
:10156000CF91DF910895DF93CF9300D00F92CDB745
:10157000DEB79B838A8319828A819B81009749F019
:101580008A819B81909365028093640281E08983C4
:1015900002C082E0898389810F900F900F90CF91D4
:1015A000DF910895DF93CF9300D00F92CDB7DEB7D0
:1015B0009B838A8319828A819B81009749F08A8163
:1015C0009B81909367028093660281E0898302C0C9
:1015D00082E0898389810F900F900F90CF91DF91E6
:1015E00008951F920F920FB60F9211242F933F93DD
:1015F0004F935F936F937F938F939F93AF93BF931B
:10160000EF93FF93DF93CF93CDB7DEB78091620264
:1016100090916302009729F0E0916202F0916302D9
:101620000995CF91DF91FF91EF91BF91AF919F917C
:101630008F917F916F915F914F913F912F910F907B
:101640000FBE0F901F9018951F920F920FB60F921A
:1016500011242F933F934F935F936F937F938F93B7
:101660009F93AF93BF93EF93FF93DF93CF93CDB748
:10167000DEB78091640290916502009729F0E091B5
:101680006402F09165020995CF91DF91FF91EF918E
:10169000BF91AF919F918F917F916F915F914F918A
:1016A0003F912F910F900FBE0F901F9018951F9292
:1016B0000F920FB60F9211242F933F934F935F9386
:1016C0006F937F938F939F93AF93BF93EF93FF930A
:1016D000DF93CF93CDB7DEB780916602909167021A
:1016E000009729F0E0916602F09167020995CF9189
:1016F000DF91FF91EF91BF91AF919F918F917F917A
:101700006F915F914F913F912F910F900FBE0F906E
:101710001F901895DF93CF930F92CDB7DEB7198244
:10172000EAE3F0E01082E7E3F0E083E08083E4E3C3
:10173000F0E08FEF8083E1E3F0E083E98083EBE387
:10174000F0E080EE8083E8E3F0E08EED8083E5E377
:10175000F0E089E58083E2E3F0E08EE5808381E0DC
:10176000898389810F90CF91DF910895DF93CF9383
:1017700000D000D00F92CDB7DEB78A836B83198279
:101780008A818430A8F58A81282F30E03D832C831C
:101790008C819D8181309105D1F02C813D81223059
:1017A00031052CF48C819D81009761F01EC02C8145
:1017B0003D812230310581F08C819D8183309105FE
:1017C00081F013C0EAE3F0E08B8180830EC0E7E391
:1017D000F0E08B81808309C0E4E3F0E08B818083BB
:1017E00004C0E1E3F0E08B81808381E0898302C063
:1017F00083E0898389810F900F900F900F900F9055
:10180000CF91DF910895DF93CF9300D000D00F9256
:10181000CDB7DEB78A836B8319828A818430A8F5BD
:101820008A81282F30E03D832C838C819D818130FB
:101830009105D1F02C813D81223031052CF48C8131
:101840009D81009761F01EC02C813D8122303105C1
:1018500081F08C819D818330910581F013C0EBE391
:10186000F0E08B8180830EC0E8E3F0E08B81808321
:1018700009C0E5E3F0E08B81808304C0E2E3F0E09F
:101880008B81808381E0898302C083E089838981A1
:101890000F900F900F900F900F90CF91DF910895C0
:1018A000DF93CF9300D000D0CDB7DEB78A83198203
:1018B0008A81843008F041C08A81282F30E03C833F
:1018C0002B838B819C8181309105E9F02B813C81B8
:1018D000223031052CF48B819C81009761F02AC065
:1018E0002B813C8122303105B1F08B819C8183308A
:1018F0009105C9F01FC0ABE3B0E0EBE3F0E08081FD
:1019000080958C9317C0A8E3B0E0E8E3F0E0808115
:1019100080958C930FC0A5E3B0E0E5E3F0E0808113
:1019200080958C9307C0A2E3B0E0E2E3F0E0808111
:1019300080958C9381E0898302C083E089838981CB
:101940000F900F900F900F90CF91DF910895DF933C
:10195000CF9300D000D000D0CDB7DEB78A837C8390
:101960006B8319828B819C81009709F443C08A8123
:101970008430E8F58A81282F30E03E832D838D81E5
:101980009E8181309105E1F02D813E81223031052B
:101990002CF48D819E81009761F026C02D813E81BF
:1019A00022303105A1F08D819E8183309105B1F007
:1019B0001BC0E9E3F0E08081EB81FC81808314C0EF
:1019C000E6E3F0E08081EB81FC8180830DC0E3E3FE
:1019D000F0E08081EB81FC81808306C0E0E3F0E0F1
:1019E0008081EB81FC81808381E0898305C083E075
:1019F000898302C082E08983898126960FB6F89494
:101A0000DEBF0FBECDBFCF91DF910895DF93CF939F
:101A100000D000D000D0CDB7DEB78A836B834C8373
:101A200019828A81843008F0D1C08B81883008F017
:101A3000CDC08C81823008F0C9C08A81282F30E067
:101A40003E832D836D817E816130710509F441C033
:101A50008D819E818230910534F42D813E81211546
:101A6000310571F0B0C06D817E816230710509F47D
:101A700059C08D819E818330910509F47CC0A3C03B
:101A8000AAE3B0E0EAE3F0E08081482F8B81282FC1
:101A900030E081E090E002C0880F991F2A95E2F7BC
:101AA000809584238C93AAE3B0E0EAE3F0E08081A0
:101AB000482F8C81282F30E08B81882F90E0B9014E
:101AC00002C0660F771F8A95E2F7CB01842B8C93B7
:101AD0007AC0A7E3B0E0E7E3F0E08081482F8B8194
:101AE000282F30E081E090E002C0880F991F2A95EE
:101AF000E2F7809584238C93A7E3B0E0E7E3F0E07E
:101B00008081482F8C81282F30E08B81882F90E0B6
:101B1000B90102C0660F771F8A95E2F7CB01842BCB
:101B20008C9351C0A4E3B0E0E4E3F0E08081482F5F
:101B30008B81282F30E081E090E002C0880F991F50
:101B40002A95E2F7809584238C93A4E3B0E0E4E344
:101B5000F0E08081482F8C81282F30E08B81882F06
:101B600090E0B90102C0660F771F8A95E2F7CB01BA
:101B7000842B8C9328C0A1E3B0E0E1E3F0E0808106
:101B8000482F8B81282F30E081E090E002C0880F41
:101B9000991F2A95E2F7809584238C93A1E3B0E006
:101BA000E1E3F0E08081482F8C81282F30E08B81A9
:101BB000882F90E0B90102C0660F771F8A95E2F77F
:101BC000CB01842B8C9381E0898302C083E08983DD
:101BD000898126960FB6F894DEBF0FBECDBFCF9198
:101BE000DF910895DF93CF9300D000D000D0CDB720
:101BF000DEB78A836B834C8319828A81843008F034
:101C0000D1C08B81883008F0CDC08C81823008F043
:101C1000C9C08A81282F30E03E832D836D817E816B
:101C20006130710509F441C08D819E81823091053A
:101C300034F42D813E812115310571F0B0C06D81E4
:101C40007E816230710509F459C08D819E81833097
:101C5000910509F47CC0A3C0ABE3B0E0EBE3F0E096
:101C60008081482F8B81282F30E081E090E002C0F6
:101C7000880F991F2A95E2F7809584238C93ABE314
:101C8000B0E0EBE3F0E08081482F8C81282F30E03A
:101C90008B81882F90E0B90102C0660F771F8A956B
:101CA000E2F7CB01842B8C937AC0A8E3B0E0E8E3A1
:101CB000F0E08081482F8B81282F30E081E090E098
:101CC00002C0880F991F2A95E2F7809584238C9390
:101CD000A8E3B0E0E8E3F0E08081482F8C81282F72
:101CE00030E08B81882F90E0B90102C0660F771F2A
:101CF0008A95E2F7CB01842B8C9351C0A5E3B0E029
:101D0000E5E3F0E08081482F8B81282F30E081E0EF
:101D100090E002C0880F991F2A95E2F780958423EE
:101D20008C93A5E3B0E0E5E3F0E08081482F8C815F
:101D3000282F30E08B81882F90E0B90102C0660F18
:101D4000771F8A95E2F7CB01842B8C9328C0A2E3FE
:101D5000B0E0E2E3F0E08081482F8B81282F30E073
:101D600081E090E002C0880F991F2A95E2F78095E4
:101D700084238C93A2E3B0E0E2E3F0E08081482F7B
:101D80008C81282F30E08B81882F90E0B90102C030
:101D9000660F771F8A95E2F7CB01842B8C9381E045
:101DA000898302C083E08983898126960FB6F894DF
:101DB000DEBF0FBECDBFCF91DF910895DF93CF93EC
:101DC00000D000D00F92CDB7DEB78A836B83198223
:101DD0008A81843008F075C08B81883008F071C02A
:101DE0008A81282F30E03D832C838C819D81813036
:101DF000910549F12C813D81223031052CF48C81F3
:101E00009D81009761F05AC02C813D8122303105BF
:101E100071F18C819D8183309105E9F14FC0ABE375
:101E2000B0E0EBE3F0E08081482F8B81282F30E099
:101E300081E090E0022E02C0880F991F0A94E2F719
:101E400084278C933BC0A8E3B0E0E8E3F0E0808116
:101E5000482F8B81282F30E081E090E0022E02C0D5
:101E6000880F991F0A94E2F784278C9327C0A5E373
:101E7000B0E0E5E3F0E08081482F8B81282F30E04F
:101E800081E090E0022E02C0880F991F0A94E2F7C9
:101E900084278C9313C0A2E3B0E0E2E3F0E08081FA
:101EA000482F8B81282F30E081E090E0022E02C085
:101EB000880F991F0A94E2F784278C9381E0898325
:101EC00002C083E0898389810F900F900F900F905B
:101ED0000F90CF91DF910895DF93CF93CDB7DEB709
:101EE00027970FB6F894DEBF0FBECDBF8A836B83F2
:101EF0005D834C8319828C819D81009709F47EC09B
:101F00008A81843008F077C08B81883008F073C0F4
:101F10008A81282F30E03F832E834E815F814130BC
:101F2000510559F18E819F818230910534F42E81C3
:101F30003F812115310569F05BC04E815F814230E0
:101F4000510579F18E819F818330910509F43DC05F
:101F50004FC0E9E3F0E08081282F30E08B81882FAB
:101F600090E0A90102C0559547958A95E2F7CA010C
:101F70008170EC81FD8180833BC0E6E3F0E08081ED
:101F8000282F30E08B81882F90E0A90102C0559561
:101F900047958A95E2F7CA018170EC81FD818083C3
:101FA00027C0E3E3F0E08081282F30E08B81882F89
:101FB00090E0A90102C0559547958A95E2F7CA01BC
:101FC0008170EC81FD81808313C0E0E3F0E08081CB
:101FD000282F30E08B81882F90E0A90102C0559511
:101FE00047958A95E2F7CA018170EC81FD81808373
:101FF00081E0898305C083E0898302C082E0898310
:10200000898127960FB6F894DEBF0FBECDBFCF9162
:10201000DF910895DF93CF930F92CDB7DEB781E0C4
:102020008983A7E2B0E0E7E2F0E080818F7B8C93C8
:10203000A7E2B0E0E7E2F0E080818F778C93A7E23F
:10204000B0E0E7E2F0E0808180628C93A6E2B0E04D
:10205000E6E2F0E08081887F8C93A6E2B0E0E6E2E1
:10206000F0E0808187608C93A6E2B0E0E6E2F0E0E9
:1020700080818F7D8C93A6E2B0E0E6E2F0E0808183
:10208000877F8C93A0E5B0E0E0E5F0E080818F7180
:102090008C93A0E5B0E0E0E5F0E080818C93A6E2CF
:1020A000B0E0E6E2F0E0808180688C9389810F9057
:1020B000CF91DF910895DF93CF93CDB7DEB7289707
:1020C0000FB6F894DEBF0FBECDBF8E8378876F83C7
:1020D00081E08D8319821A821B821C828F819885F0
:1020E000009709F453C080910002893009F04BC079
:1020F00088E0809300028E81803258F4A7E2B0E03D
:10210000E7E2F0E08081982F907E8E81892B8C937E
:1021100002C083E08D83A6E2B0E0E6E2F0E08081D9
:1021200080648C93A6E2B0E0E6E2F0E08081877FF5
:102130008C93E6E2F0E0808182958F70882F90E0AA
:1021400081709070009761F489819A81AB81BC8124
:102150000196A11DB11D89839A83AB83BC83E9CF0E
:10216000A6E2B0E0E6E2F0E0808180618C93E5E2F7
:10217000F0E080819181EF81F8859183808389E00F
:102180008093000205C088E08D8302C082E08D83C9
:102190008D8128960FB6F894DEBF0FBECDBFCF91CC
:1021A000DF910895DF93CF9300D000D000D0CDB75A
:1021B000DEB78A837C836B835E834D8381E0898372
:1021C0008B819C810097C9F18D819E810097A9F137
:1021D00080910002893071F588E0809300028A8145
:1021E000803228F58B819C8190936B0280936A02E8
:1021F0008D819E819093690280936802A7E2B0E08E
:10220000E7E2F0E08081982F907F8A81892B8C9380
:10221000A6E2B0E0E6E2F0E0808180648C93A6E282
:10222000B0E0E6E2F0E0808188608C9308C083E053
:10223000898305C088E0898302C082E0898389811F
:1022400026960FB6F894DEBF0FBECDBFCF91DF91BB
:1022500008951F920F920FB60F9211242F933F9360
:102260004F935F936F937F938F939F93AF93BF939E
:10227000EF93FF93DF93CF93CDB7DEB7E5E2F0E0C6
:102280008081918190936B0280936A0280916802B1
:1022900090916902009729F0E0916802F09169023B
:1022A0000995CF91DF91FF91EF91BF91AF919F91F0
:1022B0008F917F916F915F914F913F912F910F90EF
:1022C0000FBE0F901F901895DF93CF9300D000D0D2
:1022D000CDB7DEB79C838B831A828B819C8100975C
:1022E00009F45FC0198258C08981282F30E0C901E4
:1022F000880F991F280F391F8B819C81FC01E20FE9
:10230000F31F40818981282F30E0C901880F991F70
:10231000280F391F8B819C81FC01E20FF31F9181F3
:10232000842F692F40E00E94060D8A838981282F1F
:1023300030E0C901880F991F280F391F8B819C81BC
:10234000FC01E20FF31F50818981282F30E0C90181
:10235000880F991F280F391F8B819C81FC01E20F88
:10236000F31F41818981282F30E0C901880F991F0F
:10237000280F391F8B819C81FC01E20FF31F928192
:10238000852F642F492F0E94F20D8A838A81813024
:1023900051F489818F5F89838981833008F4A4CFC8
:1023A00002C082E08A838A810F900F900F900F9075
:1023B000CF91DF910895DF93CF9300D000D00F929B
:1023C000CDB7DEB79B838A837D836C8319828C8132
:1023D0009D81009791F08A819B81009771F0EA813D
:1023E000FB818081EA81FB8191812C813D81692F74
:1023F000A9010E946C0F898302C082E089838981D0
:102400000F900F900F900F900F90CF91DF91089544
:10241000AF92BF92CF92DF92EF92FF920F931F93F2
:10242000DF93CF93CDB7DEB7CD54D0400FB6F8943D
:10243000DEBF0FBECDBFFE01EE5BFF4F108219AEB7
:102440001AAE1BAE1CAE1DAE1EAE1FAEFE01E05C92
:10245000FF4F108280E060E041E00E94060D282FCF
:1024600030E040E050E060E070E080E090E0E9AD16
:10247000E22BE9AFEAADE32BEAAFEBADE42BEBAF38
:10248000ECADE52BECAFEDADE62BEDAFEEADE72B14
:10249000EEAFEFADE82BEFAFFE01E05CFF4FE08168
:1024A0008E2F892BFE01E05CFF4F808380E061E08E
:1024B00041E00E94060DA82EBB24CC24DD24EE248E
:1024C000FF2487012A2D3B2D4C2D5D2D6E2D7F2D58
:1024D000802F912F03E00E94C800A22EB32EC42E9D
:1024E000D52EE62EF72E082F192F2A2D3B2D4C2DF9
:1024F0005D2D6E2D7F2D802F912FE9ADE22BE9AF61
:10250000EAADE32BEAAFEBADE42BEBAFECADE52BA3
:10251000ECAFEDADE62BEDAFEEADE72BEEAFEFADF3
:10252000E82BEFAFFE01E05CFF4FE0818E2F892B9F
:10253000FE01E05CFF4F808380E066E041E00E94A6
:10254000060DA82EBB24CC24DD24EE24FF24870115
:102550002A2D3B2D4C2D5D2D6E2D7F2D802F912F03
:1025600006E00E94C800A22EB32EC42ED52EE62E61
:10257000F72E082F192F2A2D3B2D4C2D5D2D6E2D5A
:102580007F2D802F912FE9ADE22BE9AFEAADE32B50
:10259000EAAFEBADE42BEBAFECADE52BECAFEDAD83
:1025A000E62BEDAFEEADE72BEEAFEFADE82BEFAFE7
:1025B000FE01E05CFF4FE0818E2F892BFE01E05C85
:1025C000FF4F808380E062E041E00E94060DA82E6C
:1025D000BB24CC24DD24EE24FF2487012A2D3B2DAF
:1025E0004C2D5D2D6E2D7F2D802F912F09E00E94A7
:1025F000C800A22EB32EC42ED52EE62EF72E082FFD
:10260000192F2A2D3B2D4C2D5D2D6E2D7F2D802FCA
:10261000912FE9ADE22BE9AFEAADE32BEAAFEBADE9
:10262000E42BEBAFECADE52BECAFEDADE62BEDAF76
:10263000EEADE72BEEAFEFADE82BEFAFFE01E05CC8
:10264000FF4FE0818E2F892BFE01E05CFF4F8083DE
:1026500080E063E041E00E94060DA82EBB24CC245C
:10266000DD24EE24FF2487012A2D3B2D4C2D5D2DEA
:102670006E2D7F2D802F912F0CE00E94C800A22E7E
:10268000B32EC42ED52EE62EF72E082F192F2A2D65
:102690003B2D4C2D5D2D6E2D7F2D802F912FE9AD83
:1026A000E22BE9AFEAADE32BEAAFEBADE42BEBAF06
:1026B000ECADE52BECAFEDADE62BEDAFEEADE72BE2
:1026C000EEAFEFADE82BEFAFFE01E05CFF4FE08136
:1026D0008E2F892BFE01E05CFF4F808380E064E059
:1026E00041E00E94060DA82EBB24CC24DD24EE245C
:1026F000FF2487012A2D3B2D4C2D5D2D6E2D7F2D26
:10270000802F912F0FE00E94C800A22EB32EC42E5E
:10271000D52EE62EF72E082F192F2A2D3B2D4C2DC6
:102720005D2D6E2D7F2D802F912FE9ADE22BE9AF2E
:10273000EAADE32BEAAFEBADE42BEBAFECADE52B71
:10274000ECAFEDADE62BEDAFEEADE72BEEAFEFADC1
:10275000E82BEFAFFE01E05CFF4FE0818E2F892B6D
:10276000FE01E05CFF4F808380E065E041E00E9475
:10277000060DA82EBB24CC24DD24EE24FF248701E3
:102780002A2D3B2D4C2D5D2D6E2D7F2D802F912FD1
:1027900002E10E94C800A22EB32EC42ED52EE62E32
:1027A000F72E082F192F2A2D3B2D4C2D5D2D6E2D28
:1027B0007F2D802F912FE9ADE22BE9AFEAADE32B1E
:1027C000EAAFEBADE42BEBAFECADE52BECAFEDAD51
:1027D000E62BEDAFEEADE72BEEAFEFADE82BEFAFB5
:1027E000FE01E05CFF4FE0818E2F892BFE01E05C53
:1027F000FF4F808380E090E0A0E2B2E48DAB9EAB1F
:10280000AFABB8AF6DA97EA98FA998AD20E030E03D
:102810004AE753E40E941D03DC01CB0189AB9AAB6C
:10282000ABABBCAB69A97AA98BA99CA920E030E02D
:1028300040E85FE30E94D70488232CF481E090E015
:1028400098AB8FA73FC069A97AA98BA99CA920E062
:102850003FEF4FE757E40E94770418164CF56DA937
:102860007EA98FA998AD20E030E040E251E40E94BB
:102870001D03DC01CB01BC01CD010E944701DC013D
:10288000CB0198AB8FA70FC089E190E09EA78DA7E1
:102890008DA59EA50197F1F79EA78DA78FA598A955
:1028A000019798AB8FA78FA598A9009769F714C0D7
:1028B00069A97AA98BA99CA90E944701DC01CB01D7
:1028C00098AB8FA78FA598A99CA78BA78BA59CA534
:1028D0000197F1F79CA78BA780E20E94951EA82E76
:1028E000BB24CC24DD24EE24FF2487012A2D3B2D9C
:1028F0004C2D5D2D6E2D7F2D802F912F05E10E9497
:10290000C800A22EB32EC42ED52EE62EF72E082FE9
:10291000192F2A2D3B2D4C2D5D2D6E2D7F2D802FB7
:10292000912FE9ADE22BE9AFEAADE32BEAAFEBADD6
:10293000E42BEBAFECADE52BECAFEDADE62BEDAF63
:10294000EEADE72BEEAFEFADE82BEFAFFE01E05CB5
:10295000FF4FE0818E2F892BFE01E05CFF4F8083CB
:1029600080E20E94951EA82EBB24CC24DD24EE24F8
:10297000FF2487012A2D3B2D4C2D5D2D6E2D7F2DA3
:10298000802F912F08E10E94C800A22EB32EC42EE2
:10299000D52EE62EF72E082F192F2A2D3B2D4C2D44
:1029A0005D2D6E2D7F2D802F912FE9ADE22BE9AFAC
:1029B000EAADE32BEAAFEBADE42BEBAFECADE52BEF
:1029C000ECAFEDADE62BEDAFEEADE72BEEAFEFAD3F
:1029D000E82BEFAFFE01E05CFF4FE0818E2F892BEB
:1029E000FE01E05CFF4F808380E80E94951EA82EC8
:1029F000BB24CC24DD24EE24FF2487012A2D3B2D8B
:102A00004C2D5D2D6E2D7F2D802F912F0BE10E947F
:102A1000C800A22EB32EC42ED52EE62EF72E082FD8
:102A2000192F2A2D3B2D4C2D5D2D6E2D7F2D802FA6
:102A3000912FE9ADE22BE9AFEAADE32BEAAFEBADC5
:102A4000E42BEBAFECADE52BECAFEDADE62BEDAF52
:102A5000EEADE72BEEAFEFADE82BEFAFFE01E05CA4
:102A6000FF4FE0818E2F892BFE01E05CFF4F8083BA
:102A700080E090E0A0E8BFE38FA398A7A9A7BAA73A
:102A80006FA178A589A59AA520E030E04AE753E434
:102A90000E941D03DC01CB018BA39CA3ADA3BEA3AD
:102AA0006BA17CA18DA19EA120E030E040E85FE316
:102AB0000E94D70488232CF481E090E09AA389A394
:102AC0003FC06BA17CA18DA19EA120E03FEF4FE70D
:102AD00057E40E94770418164CF56FA178A589A5D4
:102AE0009AA520E030E040E251E40E941D03DC01A1
:102AF000CB01BC01CD010E944701DC01CB019AA3AF
:102B000089A30FC089E190E098A38F8F8F8D98A142
:102B10000197F1F798A38F8F89A19AA101979AA3A2
:102B200089A389A19AA1009769F714C06BA17CA120
:102B30008DA19EA10E944701DC01CB019AA389A32C
:102B400089A19AA19E8F8D8F8D8D9E8D0197F1F712
:102B50009E8F8D8F80E00E94951EA82EBB24CC24D2
:102B6000DD24EE24FF2487012A2D3B2D4C2D5D2DE5
:102B70006E2D7F2D802F912F0EE10E94C800A22E76
:102B8000B32EC42ED52EE62EF72E082F192F2A2D60
:102B90003B2D4C2D5D2D6E2D7F2D802F912FE9AD7E
:102BA000E22BE9AFEAADE32BEAAFEBADE42BEBAF01
:102BB000ECADE52BECAFEDADE62BEDAFEEADE72BDD
:102BC000EEAFEFADE82BEFAFFE01E05CFF4FE08131
:102BD0008E2F892BFE01E05CFF4F808380EC0E94EA
:102BE000951EA82EBB24CC24DD24EE24FF248701CF
:102BF0002A2D3B2D4C2D5D2D6E2D7F2D802F912F5D
:102C000001E20E94C800A22EB32EC42ED52EE62EBD
:102C1000F72E082F192F2A2D3B2D4C2D5D2D6E2DB3
:102C20007F2D802F912FE9ADE22BE9AFEAADE32BA9
:102C3000EAAFEBADE42BEBAFECADE52BECAFEDADDC
:102C4000E62BEDAFEEADE72BEEAFEFADE82BEFAF40
:102C5000FE01E05CFF4FE0818E2F892BFE01E05CDE
:102C6000FF4F808380E090E0A0E8BFE3898F9A8FD8
:102C7000AB8FBC8F698D7A8D8B8D9C8D20E030E081
:102C80004AE753E40E941D03DC01CB018D8B9E8B30
:102C9000AF8BB88F6D897E898F89988D20E030E069
:102CA00040E85FE30E94D70488232CF481E090E0A1
:102CB0009C8B8B8B3FC06D897E898F89988D20E09E
:102CC0003FEF4FE757E40E94770418164CF5698DE3
:102CD0007A8D8B8D9C8D20E030E040E251E40E94A3
:102CE0001D03DC01CB01BC01CD010E944701DC01C9
:102CF000CB019C8B8B8B0FC089E190E09A8B898BE9
:102D000089899A890197F1F79A8B898B8B899C899C
:102D100001979C8B8B8B8B899C89009769F714C0DA
:102D20006D897E898F89988D0E944701DC01CB01D6
:102D30009C8B8B8B8B899C89988B8F878F859889AF
:102D40000197F1F7988B8F8780E00E94951EA82E3F
:102D5000BB24CC24DD24EE24FF2487012A2D3B2D27
:102D60004C2D5D2D6E2D7F2D802F912F04E20E9422
:102D7000C800A22EB32EC42ED52EE62EF72E082F75
:102D8000192F2A2D3B2D4C2D5D2D6E2D7F2D802F43
:102D9000912FE9ADE22BE9AFEAADE32BEAAFEBAD62
:102DA000E42BEBAFECADE52BECAFEDADE62BEDAFEF
:102DB000EEADE72BEEAFEFADE82BEFAFFE01E05C41
:102DC000FF4FE0818E2F892BFE01E05CFF4F808357
:102DD00080E10E94951EA82EBB24CC24DD24EE2485
:102DE000FF2487012A2D3B2D4C2D5D2D6E2D7F2D2F
:102DF000802F912F07E20E94C800A22EB32EC42E6E
:102E0000D52EE62EF72E082F192F2A2D3B2D4C2DCF
:102E10005D2D6E2D7F2D802F912FE9ADE22BE9AF37
:102E2000EAADE32BEAAFEBADE42BEBAFECADE52B7A
:102E3000ECAFEDADE62BEDAFEEADE72BEEAFEFADCA
:102E4000E82BEFAFFE01E05CFF4FE0818E2F892B76
:102E5000FE01E05CFF4F808380E090E0A0E0B0E402
:102E60008B879C87AD87BE876B857C858D859E858E
:102E700020E030E04AE753E40E941D03DC01CB016F
:102E80008F839887A987BA876F81788589859A8586
:102E900020E030E040E85FE30E94D70488232CF470
:102EA00081E090E09E838D833FC06F817885898526
:102EB0009A8520E03FEF4FE757E40E947704181609
:102EC0004CF56B857C858D859E8520E030E040E269
:102ED00051E40E941D03DC01CB01BC01CD010E9425
:102EE0004701DC01CB019E838D830FC089E190E017
:102EF0009C838B838B819C810197F1F79C838B83CF
:102F00008D819E8101979E838D838D819E81009707
:102F100069F714C06F81788589859A850E94470179
:102F2000DC01CB019E838D838D819E819A83898371
:102F300089819A810197F1F79A83898380E00E94C1
:102F4000951EA82EBB24CC24DD24EE24FF2487016B
:102F50002A2D3B2D4C2D5D2D6E2D7F2D802F912FF9
:102F60000AE20E94C800A22EB32EC42ED52EE62E51
:102F7000F72E082F192F2A2D3B2D4C2D5D2D6E2D50
:102F80007F2D802F912FE9ADE22BE9AFEAADE32B46
:102F9000EAAFEBADE42BEBAFECADE52BECAFEDAD79
:102FA000E62BEDAFEEADE72BEEAFEFADE82BEFAFDD
:102FB000FE01E05CFF4FE0818E2F892BFE01E05C7B
:102FC000FF4F808380E60E94951EA82EBB24CC2450
:102FD000DD24EE24FF2487012A2D3B2D4C2D5D2D71
:102FE0006E2D7F2D802F912F0DE20E94C800A22E02
:102FF000B32EC42ED52EE62EF72E082F192F2A2DEC
:103000003B2D4C2D5D2D6E2D7F2D802F912FE9AD09
:10301000E22BE9AFEAADE32BEAAFEBADE42BEBAF8C
:10302000ECADE52BECAFEDADE62BEDAFEEADE72B68
:10303000EEAFEFADE82BEFAFFE01E05CFF4FE081BC
:103040008E2F892BFE01E05CFF4F808381E080930F
:103050006C02FE01EF5BFF4F108285C0FE01EF5B4B
:10306000FF4F8081A82FB0E029AD3AAD4BAD5CADEC
:103070006DAD7EAD8FAD2E96DFAFCEAF2E97FE013C
:10308000E05CFF4F90810A2F0E944900A22EB32ED0
:10309000C42ED52EE62EF72E082F192F2A2D3B2DC4
:1030A0004C2D5D2D6E2D7F2D802F912FE22FE770FF
:1030B0002596EFAF2597E32FE0702696EFAF269782
:1030C000E42FE0702796EFAF2797E52FE070289662
:1030D000EFAF2897E62FE0702996EFAF2997E72FFB
:1030E000E0702A96EFAF2A97E82FE0702B96EFAFAB
:1030F0002B97E92FE0702C96EFAF2C9725968FAD8C
:103100002597813019F52696EFAD2697EE23F1F439
:1031100027968FAD27978823C9F42896EFAD289777
:10312000EE23A1F429968FAD2997882379F42A9666
:10313000EFAD2A97EE2351F42B968FAD2B97882372
:1031400029F42C96EFAD2C97EE2321F024961FAE98
:1031500024971CC0DE01AF5BBF4FFE01EF5BFF4F4A
:1031600080818D5F8C93FE01EF5BFF4F8081803308
:1031700008F474CFFE01EE5BFF4F81E08083FE0117
:10318000EE5BFF4F808124968FAF249724968FADFE
:103190002497C35BDF4F0FB6F894DEBF0FBECDBFE1
:1031A000CF91DF911F910F91FF90EF90DF90CF9023
:1031B000BF90AF900895DF93CF9300D0CDB7DEB727
:1031C0008A83198280E060E041E00E94F20D813044
:1031D00021F48A810E94F21A898389810F900F90CD
:1031E000CF91DF910895DF93CF9300D0CDB7DEB7B5
:1031F0008A83198280E060E040E00E94F20D813015
:1032000021F48A810E94F21A898389810F900F909C
:10321000CF91DF910895DF93CF930F92CDB7DEB7B3
:10322000198281E00E94951E898389810F90CF9138
:10323000DF910895DF93CF9300D000D0CDB7DEB7F4
:103240009C838B831A82198280E060E041E00E94B7
:10325000F20D813001F581E08A830FC08981282F2A
:1032600030E08B819C81FC01E20FF31F80810E9482
:10327000F21A8A8389818F5F89838981282F30E0C0
:103280008B819C81FC01E20FF31F8081882319F060
:103290008A81813019F38A810F900F900F900F90DF
:1032A000CF91DF910895DF93CF9300D000D000D06D
:1032B000CDB7DEB79C838B836D834E831A828E815C
:1032C000882F90E00896880F991F880F991F880F04
:1032D000991F0E94F3188A8319820EC08981282FB2
:1032E00030E08B819C81FC01E20FF31F80810E9402
:1032F000DB1889818F5F89838981282F30E08D8158
:10330000882F90E0880F991F880F991F880F991FA9
:10331000281739071CF38FE80E94F31884E00E94F5
:10332000F3188A8126960FB6F894DEBF0FBECDBF84
:10333000CF91DF910895DF93CF9300D00F92CDB757
:10334000DEB78A836B8319828A81813031F48B8165
:1033500080580E94951E898305C08B8180540E94ED
:10336000951E898389810F900F900F90CF91DF91E7
:1033700008950F931F93DF93CF93CDB7DEB72A97AE
:103380000FB6F894DEBF0FBECDBF8987188680E0E8
:1033900060E041E00E94F20D88878985882F90E0E7
:1033A000AA2797FDA095BA2FBC01CD010E94070561
:1033B000DC01CB01BC01CD0120E030E040E050E079
:1033C0000E941704882339F480E30E94F21A888748
:1033D00028852A87FBC08FEF8F838985882F90E00F
:1033E000A0E0B0E08B839C83AD83BE838985882F6A
:1033F00090E0AA2797FDA095BA2FBC01CD010E94AD
:103400000705DC01CB01BC01CD0120E030E040E844
:103410005FE30E94D70488230CF047C08985882F7A
:1034200090E0AA2797FDA095BA2FBC01CD010E947C
:103430000705DC01CB01BC01CD0120E030E040E01C
:1034400050E00E947704181684F580E30E94DB1890
:103450002CC08F818F5F8F838F81082F112707FDED
:1034600010958B819C81AD81BE812AE030E040E0E7
:1034700050E0BC01CD010E948022DC01CB01F801AB
:10348000EA5BFD4F80838B819C81AD81BE812AE008
:1034900030E040E050E0BC01CD010E948022DA0122
:1034A000C9018B839C83AD83BE838B819C81AD815D
:1034B000BE81181619061A061B069CF488858130F1
:1034C00041F20FC08F81992787FD9095FC01EA5B3F
:1034D000FD4F8081805D0E94F21A88878F81815024
:1034E0008F838F8188231CF08885813059F319865A
:1034F0008985882F90E0AA2797FDA095BA2FBC0157
:10350000CD010E940705DC01CB01BC01CD0120E00B
:1035100030E040E050E00E944704882309F454C0A2
:103520008EE20E94F21A8AE090E09A83898330C08A
:103530008F818F5F8F838F81282F332727FD3095D1
:1035400083E090E0FC01E21BF30B8985282F30E03B
:1035500089819A81AC01249FC001259F900D349FE1
:10356000900D11242AE030E0B9010E946C22EA5B40
:10357000FD4F808389819A819C01220F331FC901ED
:10358000880F991F880F991F820F931F9A83898331
:1035900089819A8157E28131950750F20FC08F815E
:1035A000992787FD9095FC01EA5BFD4F8081805D46
:1035B0000E94F21A88878F8181508F838F818823A0
:1035C0001CF08885813059F388858A878A852A96F8
:1035D0000FB6F894DEBF0FBECDBFCF91DF911F9124
:1035E0000F910895DF93CF93CDB7DEB7C054D0408D
:1035F0000FB6F894DEBF0FBECDBF8FAF1EAE19AEB3
:103600001AAE1BAE1CAE80E061E040E00E94F20DFD
:10361000282F30E040E050E089AD9AADABADBCADB5
:10362000822B932BA42BB52B89AF9AAFABAFBCAF3A
:1036300080E066E040E00E94F20D882F90E0880F65
:10364000991F880F991F880F991F9C01442737FDE8
:103650004095542F89AD9AADABADBCAD822B932B69
:10366000A42BB52B89AF9AAFABAFBCAF8FAD982F62
:10367000991F9927991F80E065E0492F0E94F20D5C
:10368000882F90E0A0E0B0E0880F991FAA1FBB1F11
:10369000880F991FAA1FBB1F880F991FAA1FBB1F46
:1036A000880F991FAA1FBB1F880F991FAA1FBB1F36
:1036B000880F991FAA1FBB1F9C01AD0189AD9AAD50
:1036C000ABADBCAD822B932BA42BB52B89AF9AAF9E
:1036D000ABAFBCAF8FAD8295869586958370982FE2
:1036E000917080E064E0492F0E94F20D882F90E0F5
:1036F000A0E0B0E09C01AD01012E19E0220F331FC4
:10370000441F551F1A95D1F7102D89AD9AADABAD59
:10371000BCAD822B932BA42BB52B89AF9AAFABAF4B
:10372000BCAF8FAD829586958770982F917080E0A1
:1037300063E0492F0E94F20D882F90E0A0E0B0E0F6
:103740009C01AD01012E1CE0220F331F441F551FA9
:103750001A95D1F7102D89AD9AADABADBCAD822BCA
:10376000932BA42BB52B89AF9AAFABAFBCAF8FAD6A
:1037700082958F70982F917080E062E0492F0E94AF
:10378000F20D882F90E0A0E0B0E09C01AD01012E89
:103790001FE0220F331F441F551F1A95D1F7102D1C
:1037A00089AD9AADABADBCAD822B932BA42BB52BC1
:1037B00089AF9AAFABAFBCAF80916C02882309F49C
:1037C0008FC180E066E041E00E94F20D80E090E071
:1037D000A0E8BFE38DAB9EABAFABB8AF6DA97EA940
:1037E0008FA998AD20E030E04AE753E40E941D0322
:1037F000DC01CB0189AB9AABABABBCAB69A97AA9B5
:103800008BA99CA920E030E040E85FE30E94D70448
:1038100088232CF481E090E098AB8FA73FC069A982
:103820007AA98BA99CA920E03FEF4FE757E40E94BB
:10383000770418164CF56DA97EA98FA998AD20E0E4
:1038400030E040E251E40E941D03DC01CB01BC01E9
:10385000CD010E944701DC01CB0198AB8FA70FC0BF
:1038600089E190E09EA78DA78DA59EA50197F1F710
:103870009EA78DA78FA598A9019798AB8FA78FA515
:1038800098A9009769F714C069A97AA98BA99CA97E
:103890000E944701DC01CB0198AB8FA78FA598A9A7
:1038A0009CA78BA78BA59CA50197F1F79CA78BA73D
:1038B00080E066E040E00E94F20D80E090E0A0E849
:1038C000BFE38FA398A7A9A7BAA76FA178A589A5D9
:1038D0009AA520E030E04AE753E40E941D03DC0192
:1038E000CB018BA39CA3ADA3BEA36BA17CA18DA197
:1038F0009EA120E030E040E85FE30E94D7048823E7
:103900002CF481E090E09AA389A33FC06BA17CA135
:103910008DA19EA120E03FEF4FE757E40E9477047E
:1039200018164CF56FA178A589A59AA520E030E07E
:1039300040E251E40E941D03DC01CB01BC01CD013A
:103940000E944701DC01CB019AA389A30FC089E142
:1039500090E098A38F8F8F8D98A10197F1F798A38E
:103960008F8F89A19AA101979AA389A389A19AA16E
:10397000009769F714C06BA17CA18DA19EA10E9444
:103980004701DC01CB019AA389A389A19AA19E8F4B
:103990008D8F8D8D9E8D0197F1F79E8F8D8F8FADC1
:1039A000869586958695982F917080E065E0492FE1
:1039B0000E94F20D882F90E0A0E0B0E0880F991FE0
:1039C000AA1FBB1F880F991FAA1FBB1F880F991F13
:1039D000AA1FBB1F880F991FAA1FBB1F880F991F03
:1039E000AA1FBB1F880F991FAA1FBB1F9C01AD01F7
:1039F00089AD9AADABADBCAD822B932BA42BB52B6F
:103A000089AF9AAFABAFBCAF8FAD86958695982F37
:103A1000917080E064E0492F0E94F20D882F90E0C1
:103A2000A0E0B0E09C01AD01012E19E0220F331F90
:103A3000441F551F1A95D1F7102D89AD9AADABAD26
:103A4000BCAD822B932BA42BB52B89AF9AAFABAF18
:103A5000BCAF8FAD8695982F917080E063E0492FC1
:103A60000E94F20D882F90E0A0E0B0E09C01AD0133
:103A7000012E1CE0220F331F441F551F1A95D1F74A
:103A8000102D89AD9AADABADBCAD822B932BA42B81
:103A9000B52B89AF9AAFABAFBCAF8FAD982F9170FC
:103AA00080E062E0492F0E94F20D882F90E0A0E0B4
:103AB000B0E09C01AD01012E1FE0220F331F441F17
:103AC000551F1A95D1F7102D89AD9AADABADBCAD90
:103AD000822B932BA42BB52B89AF9AAFABAFBCAF86
:103AE0001DAE1FC08DAD282F30E089AD9AADABADB6
:103AF000BCAD022E04C0B695A795979587950A94FC
:103B0000D2F787709070A070B07081309105A105D8
:103B1000B10521F021961FAE2197FAC08DAD8D5FC2
:103B20008DAF8DAD8231F0F281E08EAF80E066E046
:103B300041E00E94F20D80E090E0A0E8BFE3898FB1
:103B40009A8FAB8FBC8F698D7A8D8B8D9C8D20E089
:103B500030E04AE753E40E941D03DC01CB018D8B6A
:103B60009E8BAF8BB88F6D897E898F89988D20E071
:103B700030E040E85FE30E94D70488232CF481E022
:103B800090E09C8B8B8B3FC06D897E898F89988D4F
:103B900020E03FEF4FE757E40E94770418164CF5FA
:103BA000698D7A8D8B8D9C8D20E030E040E251E470
:103BB0000E941D03DC01CB01BC01CD010E94470125
:103BC000DC01CB019C8B8B8B0FC089E190E09A8B41
:103BD000898B89899A890197F1F79A8B898B8B89CF
:103BE0009C8901979C8B8B8B8B899C89009769F7AB
:103BF00014C06D897E898F89988D0E944701DC01F0
:103C0000CB019C8B8B8B8B899C89988B8F878F8525
:103C100098890197F1F7988B8F8780E066E040E004
:103C20000E94F20D80E090E0A0E8BFE38B879C87C4
:103C3000AD87BE876B857C858D859E8520E030E0D5
:103C40004AE753E40E941D03DC01CB018F83988770
:103C5000A987BA876F81788589859A8520E030E0C9
:103C600040E85FE30E94D70488232CF481E090E0D1
:103C70009E838D833FC06F81788589859A8520E0FA
:103C80003FEF4FE757E40E94770418164CF56B8519
:103C90007C858D859E8520E030E040E251E40E94E5
:103CA0001D03DC01CB01BC01CD010E944701DC01F9
:103CB000CB019E838D830FC089E190E09C838B8331
:103CC0008B819C810197F1F79C838B838D819E81F1
:103CD00001979E838D838D819E81009769F714C023
:103CE0006F81788589859A850E944701DC01CB0127
:103CF0009E838D838D819E819A83898389819A8118
:103D00000197F1F79A8389838EAD21968FAF219722
:103D100021968FAD2197C05CDF4F0FB6F894DEBFC0
:103D20000FBECDBFCF91DF910895DF93CF9300D029
:103D3000CDB7DEB78A83198280E060E040E00E9460
:103D4000F20D813021F48A810E94F21A89838981DF
:103D50000F900F90CF91DF910895DF93CF93CDB760
:103D6000DEB7C954D0400FB6F894DEBF0FBECDBF4A
:103D7000AE01445C5F4F27965FAF4EAF279789E552
:103D800092E029969FAF8EAF299798E02A969FAF31
:103D90002A972996EEADFFAD2997008029964EAD62
:103DA0005FAD29974F5F5F4F29965FAF4EAF299761
:103DB0002796EEADFFAD2797008227964EAD5FADFB
:103DC00027974F5F5F4F27965FAF4EAF27972A9693
:103DD0005FAD2A9751502A965FAF2A972A968FADEA
:103DE0002A978823B1F60E948A0B0E9408128AEF54
:103DF00091E00E94CA078CE492E20E94940A8CE54A
:103E000092E20E94B30A0E94AE07CE01CC9661E016
:103E100070E040E050E00E94531981E090E060E0E3
:103E200070E00E949B1986E090E00E94F3181092C7
:103E30006F021092700210927102809156028823D4
:103E400009F483C186E090E00E94F3181BAE98C08D
:103E500081E0809357028BAD882F90E08170907045
:103E6000009769F48BAD282F30E082E090E0B90133
:103E70000E949B1980E090E00E94DB180CC08BAD83
:103E8000282F30E081E090E0B9010E949B1980E08A
:103E900090E00E94DB1880E090E0A8E4B3E48DABF2
:103EA0009EABAFABB8AF6DA97EA98FA998AD20E04E
:103EB00030E04AE753E40E941D03DC01CB0189ABEB
:103EC0009AABABABBCAB69A97AA98BA99CA920E042
:103ED00030E040E85FE30E94D70488232CF481E0BF
:103EE00090E098AB8FA73FC069A97AA98BA99CA93C
:103EF00020E03FEF4FE757E40E94770418164CF597
:103F00006DA97EA98FA998AD20E030E040E251E490
:103F10000E941D03DC01CB01BC01CD010E944701C1
:103F2000DC01CB0198AB8FA70FC089E190E09EA781
:103F30008DA78DA59EA50197F1F79EA78DA78FA5AB
:103F400098A9019798AB8FA78FA598A9009769F7B3
:103F500014C069A97AA98BA99CA90E944701DC0118
:103F6000CB0198AB8FA78FA598A99CA78BA78BA5F2
:103F70009CA50197F1F79CA78BA78BAD8D5F8BAFAD
:103F80008BAD803108F464CF80915702882309F407
:103F9000D8C00E940B1980E690E00E941A19809107
:103FA0006D028F5F80936D0280E090E0AAEFB3E432
:103FB0008FA398A7A9A7BAA76FA178A589A59AA545
:103FC00020E030E04AE753E40E941D03DC01CB010E
:103FD0008BA39CA3ADA3BEA36BA17CA18DA19EA12D
:103FE00020E030E040E85FE30E94D70488232CF40F
:103FF00081E090E09AA389A33FC06BA17CA18DA131
:104000009EA120E03FEF4FE757E40E947704181687
:104010004CF56FA178A589A59AA520E030E040E293
:1040200051E40E941D03DC01CB01BC01CD010E94C3
:104030004701DC01CB019AA389A30FC089E190E07D
:1040400098A38F8F8F8D98A10197F1F798A38F8FE9
:1040500089A19AA101979AA389A389A19AA10097FE
:1040600069F714C06BA17CA18DA19EA10E9447019C
:10407000DC01CB019AA389A389A19AA19E8F8D8F80
:104080008D8D9E8D0197F1F79E8F8D8F0E940B195C
:1040900081E790E00E941A1982E090E063E070E00E
:1040A0000E949B1982E890E00E941A1981E0809397
:1040B000710280916F02882321F48091700288231D
:1040C000C1F3809170028823B9F10E940B1980E935
:1040D00090E00E941A1980916D02882F90E00E9452
:1040E000B91986E990E00E941A1980916E02882F12
:1040F00090E00E94B91982E090E060E070E00E94D8
:104100009B1990916D0280916E02891728F48CE9B9
:1041100090E00E941A190FC090916D0280916E027A
:10412000981728F48CE990E00E941A1904C08FEACD
:1041300090E00E941A19FFCF10926F021092700245
:1041400098C181E08093570294C184E090E00E947E
:10415000F3181AAE19AEA3C081E08093580289AD5E
:104160009AAD81709070009791F48FE090E029AD46
:104170003AADFC01E21BF30B9F0182E090E0B90134
:104180000E949B1980E090E00E94DB1811C08FE034
:1041900090E029AD3AADAC01421B530B9A0181E08E
:1041A00090E0B9010E949B1980E090E00E94DB182A
:1041B00080E090E0A8E4B3E4898F9A8FAB8FBC8F46
:1041C000698D7A8D8B8D9C8D20E030E04AE753E439
:1041D0000E941D03DC01CB018D8B9E8BAF8BB88FB2
:1041E0006D897E898F89988D20E030E040E85FE31B
:1041F0000E94D70488232CF481E090E09C8B8B8B69
:104200003FC06D897E898F89988D20E03FEF4FE711
:1042100057E40E94770418164CF5698D7A8D8B8DC2
:104220009C8D20E030E040E251E40E941D03DC015F
:10423000CB01BC01CD010E944701DC01CB019C8B6D
:104240008B8B0FC089E190E09A8B898B89899A8941
:104250000197F1F79A8B898B8B899C8901979C8BAD
:104260008B8B8B899C89009769F714C06D897E8937
:104270008F89988D0E944701DC01CB019C8B8B8B31
:104280008B899C89988B8F878F8598890197F1F707
:10429000988B8F8789AD9AAD03969AAF89AF89AD18
:1042A0009AAD803191050CF457CF80915802882344
:1042B00009F4DCC00E940B1986E090E00E94F3181C
:1042C0008FEB90E00E941A1980916E028F5F8093AD
:1042D0006E0280E090E0AAEFB3E48B879C87AD8705
:1042E000BE876B857C858D859E8520E030E04AE722
:1042F00053E40E941D03DC01CB018F839887A987BB
:10430000BA876F81788589859A8520E030E040E81A
:104310005FE30E94D70488232CF481E090E09E8321
:104320008D833FC06F81788589859A8520E03FEF36
:104330004FE757E40E94770418164CF56B857C858F
:104340008D859E8520E030E040E251E40E941D030F
:10435000DC01CB01BC01CD010E944701DC01CB0196
:104360009E838D830FC089E190E09C838B838B813A
:104370009C810197F1F79C838B838D819E810197AE
:104380009E838D838D819E81009769F714C06F8114
:10439000788589859A850E944701DC01CB019E833F
:1043A0008D838D819E819A83898389819A810197EA
:1043B000F1F79A8389830E940B1981E790E00E94AC
:1043C0001A1982E090E063E070E00E949B1982E895
:1043D00090E00E941A1981E08093710280916F022F
:1043E000882321F4809170028823C1F380917002A8
:1043F0008823B9F10E940B1980E990E00E941A19F4
:1044000080916D02882F90E00E94B91986E990E0B2
:104410000E941A1980916E02882F90E00E94B919AB
:1044200082E090E060E070E00E949B1990916D0244
:1044300080916E02891728F480ED90E00E941A198D
:104440000FC090916D0280916E02981728F480ED54
:1044500090E00E941A1904C083EE90E00E941A199D
:10446000FFCF10926F021092700203C081E0809320
:1044700058028091560225961FAE2597882321F475
:1044800051E025965FAF259725968FAD25978093B0
:1044900056020E940B19CBCCDF93CF93CDB7DEB77A
:1044A00080917102882319F081E080936F0210924D
:1044B0005702CF91DF910895DF93CF93CDB7DEB749
:1044C00080917102882319F081E08093700210922C
:1044D0005802CF91DF910895AA1BBB1B51E107C081
:1044E000AA1FBB1FA617B70710F0A61BB70B881F84
:1044F000991F5A95A9F780959095BC01CD01089513
:1045000097FB092E05260ED057FD04D014D00AD0F3
:10451000001C38F450954095309521953F4F4F4FF2
:104520005F4F0895F6F790958095709561957F4F50
:104530008F4F9F4F0895A1E21A2EAA1BBB1BFD01AE
:104540000DC0AA1FBB1FEE1FFF1FA217B307E40772
:10455000F50720F0A21BB30BE40BF50B661F771FCA
:10456000881F991F1A9469F76095709580959095AA
:104570009B01AC01BD01CF0108952F923F924F9254
:104580005F926F927F928F929F92AF92BF92CF92E3
:10459000DF92EF92FF920F931F93CF93DF93CDB7EC
:1045A000DEB7CA1BDB0B0FB6F894DEBF0FBECDBF64
:1045B00009942A88398848885F846E847D848C8435
:1045C0009B84AA84B984C884DF80EE80FD800C813E
:1045D0001B81AA81B981CE0FD11D0FB6F894DEBF21
:0C45E0000FBECDBFED010895F894FFCF91
:1045EC00506C61796572203120776F6E20212E2EF0
:1045FC000073686F772073636F72652020206F7271
:10460C002000616E6F7468657220726F756E640045
:10461C0020202020200020202D202000436F6E67BA
:10462C007261747320706C61796572312120002085
:10463C002049742773206120746965202120005063
:10464C006C61796572203220776F6E20212E2E00DE
:10465C00436F6E677261747320706C61796572322E
:10466C002120002020497427732061207469652063
:10467C002100000000000000000000010202030302
:10468C0003030404040404040404050505050505DA
:10469C0005050505050505050505060606060606B8
:1046AC00060606060606060606060606060606069E
:1046BC000606060606060606060607070707070788
:1046CC00070707070707070707070707070707076E
:1046DC00070707070707070707070707070707075E
:1046EC00070707070707070707070707070707074E
:1046FC000707070707070707070708080808080838
:10470C00080808080808080808080808080808081D
:10471C00080808080808080808080808080808080D
:10472C0008080808080808080808080808080808FD
:10473C0008080808080808080808080808080808ED
:10474C0008080808080808080808080808080808DD
:10475C0008080808080808080808080808080808CD
:10476C0008080808080808080808080808080808BD
:10477C0008080808080808080808094209420742FE
:10478C00090201010200010202013F065B4F666D46
:10479C007D077F6F0006000402040304010400007F
:1047AC000100010621210700060004020403040194
:1047BC000400000100010521210700050009000388
:1047CC000109000200093000000000000000000098
:1047DC00000000000000010101000E1F1F1F1F0E32
:0247EC000000CB
:00000001FF
